:100000000C9434000C943E000C943E000C943E0082
:100010000C943E000C943E000C943E000C943E0068
:100020000C943E000C943E000C943E000C943E0058
:100030000C943E000C943E000C943E000C943E0048
:100040000C943E000C943E000C943E000C943E0038
:100050000C943E000C943E000C943E000C943E0028
:100060000C943E000C943E0011241FBECFEFD8E04C
:10007000DEBFCDBF0E9440000C9491000C940000A4
:10008000DF93CF93CDB7DEB787E690E00E944C00B8
:1000900083E50E947A00FCCFDF93CF9300D0CDB7E9
:1000A000DEB79A838983E4ECF0E089818083E5EC14
:1000B000F0E089819A81892F99278083E2ECF0E032
:1000C00086E48083E1ECF0E088ED80830F900F9070
:1000D000CF91DF910895DF93CF93CDB7DEB7E0ECFA
:1000E000F0E080818823DCF7E6ECF0E08081CF91BE
:1000F000DF910895DF93CF930F92CDB7DEB7898359
:10010000E0ECF0E08081882F90E0807290700097A2
:10011000B9F3E6ECF0E0898180830F90CF91DF9115
:060120000895F894FFCFE2
:00000001FF
