:100000000C9434000C945F010C9451000C9451003A
:100010000C9451000C9451000C9451000C9451001C
:100020000C9451000C9451000C9451000C9451000C
:100030000C9451000C9451000C9451000C945100FC
:100040000C9451000C9451000C9451000C945100EC
:100050000C9451000C9451000C9451000C945100DC
:100060000C9451000C94510011241FBECFEFD8E026
:10007000DEBFCDBF11E0A8E0B1E001C01D92AA3003
:10008000B107E1F711E0A0E0B1E0EEE6FEE002C06A
:1000900005900D92A830B107D9F70E9453000C9437
:1000A00035070C940000DF93CF93CDB7DEB76C9784
:1000B0000FB6F894DEBF0FBECDBF0E9479018091CC
:1000C0000801909109018130910509F07EC0A5E2F7
:1000D000B0E0E5E2F0E0808181608C9380E090E028
:1000E000AAEFB4E4898F9A8FAB8FBC8F698D7A8D1C
:1000F0008B8D9C8D20E030E04AE755E40E947A0326
:10010000DC01CB018D8B9E8BAF8BB88F6D897E8987
:100110008F89988D20E030E040E85FE30E94D404AE
:1001200088232CF481E090E09C8B8B8B3FC06D8901
:100130007E898F89988D20E03FEF4FE757E40E943A
:10014000740418164CF5698D7A8D8B8D9C8D20E08A
:1001500030E040E251E40E947A03DC01CB01BC01B3
:10016000CD010E94A401DC01CB019C8B8B8B0FC0C5
:1001700080E991E09A8B898B89899A890197F1F7B7
:100180009A8B898B8B899C8901979C8B8B8B8B8914
:100190009C89009769F714C06D897E898F89988D35
:1001A0000E94A401DC01CB019C8B8B8B8B899C89E9
:1001B000988B8F878F8598890197F1F7988B8F8718
:1001C00010920901109208017ACFA5E2B0E0E5E2B1
:1001D000F0E080818E7F8C9380E090E0AAEFB4E421
:1001E0008B879C87AD87BE876B857C858D859E853B
:1001F00020E030E04AE755E40E947A03DC01CB01BD
:100200008F839887A987BA876F81788589859A8532
:1002100020E030E040E85FE30E94D40488232CF41F
:1002200081E090E09E838D833FC06F8178858985D2
:100230009A8520E03FEF4FE757E40E9474041816B8
:100240004CF56B857C858D859E8520E030E040E215
:1002500051E40E947A03DC01CB01BC01CD010E9474
:10026000A401DC01CB019E838D830FC080E991E066
:100270009C838B838B819C810197F1F79C838B837B
:100280008D819E8101979E838D838D819E810097B4
:1002900069F715CF6F81788589859A850E94A401B9
:1002A000DC01CB019E838D838D819E819A8389831E
:1002B00089819A810197F1F79A83898300CF1F92F0
:1002C0000F920FB60F9211248F939F93DF93CF93CA
:1002D000CDB7DEB781E090E09093090180930801EB
:1002E000CF91DF919F918F910F900FBE0F901F9034
:1002F0001895DF93CF93CDB7DEB7A4E2B0E0E4E288
:10030000F0E0808181608C93AAE2B0E0EAE2F0E064
:1003100080818B7F8C93ABE2B0E0EBE2F0E08081F8
:1003200084608C93A9E6B0E0E9E6F0E0808181602A
:100330008C93ADE3B0E0EDE3F0E0808181608C93DD
:100340007894CF91DF910895EF92FF920F931F93CE
:100350007B018C0120E030E040E05FE40E94A404D7
:1003600088238CF0C801B70120E030E040E05FE472
:100370000E941C030E9404059B01AC0120503040E8
:100380004040504806C0C801B7010E9404059B01C7
:10039000AC01B901CA011F910F91FF90EF90089530
:1003A000A0E0B0E0E6EDF1E00C94FE06DC012B01EC
:1003B000FA019C91923008F439C1EB0188818230B6
:1003C00008F433C1943069F4843009F02FC11196D8
:1003D0009C9111978981981709F428C1A0E0B1E098
:1003E00025C1843009F421C18230A9F4923009F08A
:1003F0001DC19A01AD0188E0EA010990AE01E90151
:1004000009929E018150C1F7E201898111969C9168
:100410008923818308C1923009F407C112962D9077
:100420003C901397EB018A819B811496AD90BD900F
:10043000CD90DC901797EC80FD800E811F8191019B
:10044000281B390BB90137FF04C066277727621BC9
:10045000730B603271050CF061C0121613066CF557
:1004600037014801062E04C09694879477946794C8
:100470000A94D2F721E030E040E050E004C0220FBF
:10048000331F441F551F6A95D2F72150304040401A
:1004900050402E213F214023512321153105410594
:1004A000510521F021E030E040E050E079018A017F
:1004B000E628F728082919293CC0232BD1F1260E5C
:1004C000371E35014601062E04C096948794779412
:1004D00067940A94D2F721E030E040E050E004C095
:1004E000220F331F441F551F6A95D2F72150304009
:1004F000404050402A213B214C215D2121153105EE
:100500004105510521F021E030E040E050E0590183
:100510006A01A628B728C828D9280BC082159305D8
:100520002CF01C01AA24BB24650103C0EE24FF2487
:10053000870111969C91D20111968C91981709F41C
:1005400045C0992339F0A80197012A193B094C09A4
:100550005D0906C0A60195012E193F09400B510BFC
:1005600057FD08C01182338222822483358346835B
:1005700057831DC081E08183338222828827992797
:10058000DC01821B930BA40BB50B84839583A6839C
:10059000B7830DC0220F331F441F551F248335839B
:1005A0004683578382819381019793838283248139
:1005B000358146815781DA01C9010197A109B10945
:1005C0008F5F9F4FAF4FBF4328F30BC091833382A0
:1005D0002282EA0CFB1C0C1D1D1DE482F5820683A1
:1005E000178383E08083248135814681578157FFBB
:1005F0001AC0C901AA2797FDA095BA2F81709070E3
:10060000A070B0705695479537952795822B932B00
:10061000A42BB52B84839583A683B7838281938192
:10062000019693838283DF0101C0D201CD01CDB752
:10063000DEB7E2E10C941A07A0E2B0E0E2E2F3E0F8
:100640000C940A0769837A838B839C832D833E8372
:100650004F835887E9E0EE2EF12CEC0EFD1ECE0103
:100660000196B7010E942D068E010F5E1F4FCE012D
:100670000596B8010E942D068A8991E089278A8B08
:10068000C701B801AE01475E5F4F0E94D0010E94D2
:100690005805A096E6E00C942607A0E2B0E0E3E55A
:1006A000F3E00C940A0769837A838B839C832D8300
:1006B0003E834F835887F9E0EF2EF12CEC0EFD1EA0
:1006C000CE010196B7010E942D068E010F5E1F4FCD
:1006D000CE010596B8010E942D06C701B801AE01F2
:1006E000475E5F4F0E94D0010E945805A096E6E049
:1006F0000C942607A0E2B0E0E0E8F3E00C94FE06DC
:1007000069837A838B839C832D833E834F835887B1
:10071000CE010196BE01675F7F4F0E942D06CE017C
:100720000596BE016F5E7F4F0E942D06998592301F
:1007300088F089898230C8F0943019F4823051F4FD
:1007400004C0843029F4923081F480E091E0C6C086
:10075000923049F420E09A858A89981321E02A870B
:10076000CE010996BBC0823049F420E09A858A897F
:10077000981321E02A8BCE014196B0C02D843E848F
:100780004F8458886D887E888F88988CEE24FF244B
:100790008701AA24BB24650140E050E060E070E0DE
:1007A000E0E0F0E0C10181709070892BE9F0E60C87
:1007B000F71C081D191D9A01AB012A0D3B1D4C1D8C
:1007C0005D1D80E090E0A0E0B0E0E614F7040805CD
:1007D000190520F481E090E0A0E0B0E0BA01A901A1
:1007E000480F591F6A1F7B1FAA0CBB1CCC1CDD1CA9
:1007F00097FE08C081E090E0A0E0B0E0A82AB92A06
:10080000CA2ADB2A3196E032F10549F0660C771CE2
:10081000881C991C5694479437942794C3CFFA8523
:10082000EA892B893C898B859C85280F391F2E5F8F
:100830003F4F17C0CA0181709070892B61F01695E7
:100840000795F794E79480E090E0A0E0B0E8E82A0C
:10085000F92A0A2B1B2B76956795579547952F5F9D
:100860003F4F77FDE7CF0CC0440F551F661F771F22
:1008700017FD4160EE0CFF1C001F111F215030407E
:10088000403090E0590790E0690790E4790760F301
:100890002B8F3C8FDB01CA018F779070A070B070F6
:1008A00080349105A105B10561F447FD0AC0E1144A
:1008B000F1040105110529F0405C5F4F6F4F7F4F38
:1008C00040781A8EFE1711F081E08A8F4D8F5E8F6F
:1008D0006F8F78A383E0898FCE0149960E945805D7
:1008E000A096E2E10C941A07A8E1B0E0EAE7F4E090
:1008F0000C940A0769837A838B839C832D833E83C0
:100900004F83588789E0E82EF12CEC0EFD1ECE01B6
:100910000196B7010E942D068E010F5E1F4FCE017A
:100920000596B8010E942D068985823040F089899C
:10093000823028F0C701B8010E94A50601C08FEFE0
:100940006896E6E00C942607A8E1B0E0EAEAF4E055
:100950000C940A0769837A838B839C832D833E835F
:100960004F83588789E0E82EF12CEC0EFD1ECE0156
:100970000196B7010E942D068E010F5E1F4FCE011A
:100980000596B8010E942D068985823040F089893C
:10099000823028F0C701B8010E94A50601C08FEF80
:1009A0006896E6E00C942607A8E1B0E0EAEDF4E0F2
:1009B0000C940A0769837A838B839C832D833E83FF
:1009C0004F83588789E0E82EF12CEC0EFD1ECE01F6
:1009D0000196B7010E942D068E010F5E1F4FCE01BA
:1009E0000596B8010E942D068985823040F08989DC
:1009F000823028F0C701B8010E94A50601C081E03D
:100A00006896E6E00C942607ACE0B0E0EAE0F5E09A
:100A10000C940E0769837A838B839C83CE010196A5
:100A2000BE016B5F7F4F0E942D068D81823061F188
:100A3000823050F1843021F48E81882351F12EC010
:100A40002F81388537FD20C06E812F3131051CF094
:100A50006623F9F023C08EE190E0821B930B298579
:100A60003A854B855C8504C0569547953795279503
:100A70008A95D2F76623B1F050954095309521952F
:100A80003F4F4F4F5F4F0EC020E030E040E050E05E
:100A900009C02FEF3FEF4FEF5FE704C020E030E0E9
:100AA00040E050E8B901CA012C96E2E00C942A0714
:100AB000DF92EF92FF920F931F93FC01E480F58089
:100AC00006811781D1808081823048F480E090E0F7
:100AD000A0E1B0E0E82AF92A0A2B1B2BA5C084303C
:100AE00009F49FC0823021F4EE24FF24870105C061
:100AF000E114F1040105110519F4E0E0F0E096C0FD
:100B0000628173819FEF623879070CF05BC022E845
:100B10003FEF261B370B2A3131052CF020E030E067
:100B200040E050E02AC0B801A701022E04C076952B
:100B30006795579547950A94D2F781E090E0A0E039
:100B4000B0E004C0880F991FAA1FBB1F2A95D2F7D7
:100B50000197A109B1098E219F21A023B1230097FC
:100B6000A105B10521F081E090E0A0E0B0E09A019C
:100B7000AB01282B392B4A2B5B2BDA01C9018F776C
:100B80009070A070B07080349105A105B10539F462
:100B900027FF09C0205C3F4F4F4F5F4F04C0215CCF
:100BA0003F4F4F4F5F4FE0E0F0E02030A0E03A07CA
:100BB000A0E04A07A0E45A0710F0E1E0F0E0790174
:100BC0008A0127C06038710564F5FB01E158FF4FC9
:100BD000D801C7018F779070A070B07080349105F4
:100BE000A105B10539F4E7FE0DC080E490E0A0E076
:100BF000B0E004C08FE390E0A0E0B0E0E80EF91EA2
:100C00000A1F1B1F17FF05C016950795F794E79459
:100C1000319687E016950795F794E7948A95D1F772
:100C200005C0EE24FF248701EFEFF0E06E2F6795FB
:100C300066276795902F9F77D794DD24D7948E2FC2
:100C40008695492F462B582F5D29B701CA011F9160
:100C50000F91FF90EF90DF900895FC01DB01408140
:100C600051812281622F6F7770E0221F2227221F7D
:100C70009381892F880F822B282F30E0991F992785
:100C8000991F11969C93119721153105A9F54115CE
:100C900051056105710511F482E037C082E89FEFCC
:100CA00013969C938E9312979A01AB0167E0220FE3
:100CB000331F441F551F6A95D1F783E08C930DC0F5
:100CC000220F331F441F551F12968D919C9113972D
:100CD000019713969C938E931297203080E03807EB
:100CE00080E0480780E4580758F314962D933D930D
:100CF0004D935C93179708952F3F310579F4411573
:100D000051056105710519F484E08C93089564FF21
:100D100003C081E08C9312C01C9210C02F5730404A
:100D200013963C932E93129783E08C9387E0440FA5
:100D3000551F661F771F8A95D1F7706414964D93DF
:100D40005D936D937C93179708951F93DC01FB01CE
:100D50009C91923008F447C08081823008F443C0EF
:100D6000943051F411961C91843099F58181682F4B
:100D700070E0611B71093FC0843021F0923031F482
:100D80008230B9F18181882389F12DC011961C919F
:100D900011978230F1F081811817D9F412962D91B4
:100DA0003C911397828193818217930794F02817BF
:100DB0003907BCF014968D919D910D90BC91A02D9A
:100DC0002481358146815781281739074A075B07F7
:100DD00018F4112341F00AC082179307A407B5073E
:100DE00040F4112319F061E070E005C06FEF7FEF70
:100DF00002C060E070E0CB011F9108952F923F92F6
:100E00004F925F926F927F928F929F92AF92BF921A
:100E1000CF92DF92EF92FF920F931F93CF93DF93C6
:100E2000CDB7DEB7CA1BDB0B0FB6F894DEBF0FBE23
:100E3000CDBF09942A88398848885F846E847D8470
:100E40008C849B84AA84B984C884DF80EE80FD8072
:100E50000C811B81AA81B981CE0FD11D0FB6F894E8
:0E0E6000DEBF0FBECDBFED010895F894FFCFA9
:080E6E0000000000000000007C
:00000001FF
