:100000000C9434000C9446000C9446000C9446006A
:100010000C9446000C9446000C9446000C94460048
:100020000C9446000C9446000C9446000C94460038
:100030000C9446000C9446000C9446000C94460028
:100040000C948C000C9446000C9446000C944600D2
:100050000C9446000C9446000C9446000C94460008
:100060000C9446000C94460011241FBECFEFD8E03C
:10007000DEBFCDBF11E0A0E0B1E001C01D92A23013
:10008000B107E1F70E9448000C94A9000C9400000D
:10009000DF93CF93CDB7DEB7AAE2B0E0EAE2F0E0BB
:1000A000808180648C93ABE2B0E0EBE2F0E0808191
:1000B00080648C93A5E4B0E0E5E4F0E080818460A6
:1000C0008C93AEE6B0E0EEE6F0E0808181608C9348
:1000D000E6E4F0E0108210920101109200017894A1
:1000E00080910001909101018C309105C8F3E6E404
:1000F000F0E080818433A0F3ABE2B0E0EBE2F0E02B
:10010000908180E489278C93E6E4F0E010821092DD
:10011000010110920001E4CF1F920F920FB60F92CF
:1001200011248F939F93DF93CF93CDB7DEB7809148
:1001300000019091010101969093010180930001CB
:10014000CF91DF919F918F910F900FBE0F901F90D5
:060150001895F894FFCFA2
:00000001FF
